:020000040800F2
:100000000000022081030008D1030008D10300088A
:10001000D1030008D1030008D1030008000000004C
:10002000000000000000000000000000D1030008F4
:10003000D103000800000000D1030008D10300082C
:10004000D1030008D1030008D1030008D103000840
:10005000D1030008D1030008D1030008D103000830
:10006000D1030008D1030008D1030008D103000820
:10007000D1030008D1030008D1030008D103000810
:10008000D1030008D1030008D103000800000000DC
:10009000000000000000000000000000D103000884
:1000A000D1030008D1030008D1030008D1030008E0
:1000B000D1030008D1030008D1030008D1030008D0
:1000C000D1030008D1030008D1030008D1030008C0
:1000D000D103000825030008D10300080000000038
:1000E000D1030008D1030008D1030008000000007C
:1000F000000000000000000000000000D103000824
:1001000000000000D1030008D1030008D10300085B
:1001100000000000000000000000000000000000DF
:10012000D1030008D1030008D1030008D10300085F
:10013000D1030008000000000000000000000000E3
:10014000000000000000000000000000D1030008D3
:10015000D1030008D1030008D1030008D10300082F
:10016000D1030008D10300080000000000000000D7
:10017000000000000000000000000000000000007F
:1001800000000000D1030008000000000000000093
:08019000D1030008D1030008AF
:100198000348044B834202D0034B03B1184770470E
:1001A8000000002000000020000000000548064B69
:1001B8001B1AD90F01EBA301491002D0034B03B15D
:1001C80018477047000000200000002000000000D1
:1001D80010B5064C237843B9FFF7DAFF044B13B187
:1001E8000448AFF300800123237010BD00000020F5
:1001F80000000000D403000808B5044B1BB10449F3
:100208000448AFF30080BDE80840CFE700000000D5
:1002180004000020D403000880B400AF00BFBD462E
:1002280080BC704780B400AFFEE7000080B400AF28
:10023800194B1B68184A23F470431360164B1B684C
:10024800154A43F400531360134B1B68124A43F4D6
:1002580000431360114B1B68104A23F07F4313605F
:100268000E4B1B680D4A43F0E06313600B4B1B6891
:100278000A4A43F0E0431360094B1B68084A23F419
:1002880070431360064B1B68054A43F470431360C0
:1002980000BFBD4680BC70470004024020040240F5
:1002A8000804024080B400AF184B1B68174A43F09B
:1002B80010031360164B8B221A60164B1B68154AE5
:1002C80043F480531360134B1B68124A23F4806372
:1002D8001360104B1B680F4A43F0040313600D4B67
:1002E8001B680C4A43F0080313600A4B1B68094A51
:1002F80043F400531360084B1B68074A43F020037C
:10030800136000BFBD4680BC704700BF4438024040
:10031800081001400C10014004E100E080B400AF77
:1003280000BFBD4680BC704770B50F4B0F4DAB4248
:10033800A3EB050607D0B610002455F8043B01349A
:100348009847A642F9D800F041F8094D094B5E1BC1
:10035800AB424FEAA60606D0002455F8043B013408
:100368009847A642F9D870BDEC030008EC030008D2
:10037800EC030008F0030008DFF834D0FFF74CFF67
:100388000C480D490D4A002302E0D458C4500433E8
:10039800C4188C42F9D30A4A0A4C002301E01360BE
:1003A8000432A242FBD3FFF7BFFFFFF73BFF7047C2
:1003B800000002200000002000000020F4030008D4
:1003C800000000201C000020FEE70000F8B500BF78
:1003D800F8BC08BC9E467047F8B500BFF8BC08BC1E
:0403E8009E46704776
:0403EC000102000802
:0403F000D901000827
:04000005080003816B
:00000001FF
